{
  "_format": "hh-sol-artifact-1",
  "contractName": "LogStorage",
  "sourceName": "contracts/LogStore.sol",
  "abi": [
    {
      "anonymous": false,
      "inputs": [
        {
          "indexed": true,
          "internalType": "address",
          "name": "user",
          "type": "address"
        },
        {
          "indexed": false,
          "internalType": "uint256",
          "name": "timestamp",
          "type": "uint256"
        },
        {
          "indexed": false,
          "internalType": "string",
          "name": "dataHash",
          "type": "string"
        }
      ],
      "name": "LogAdded",
      "type": "event"
    },
    {
      "inputs": [
        {
          "internalType": "string",
          "name": "_dataHash",
          "type": "string"
        }
      ],
      "name": "addLog",
      "outputs": [],
      "stateMutability": "nonpayable",
      "type": "function"
    },
    {
      "inputs": [
        {
          "internalType": "address",
          "name": "_user",
          "type": "address"
        }
      ],
      "name": "getLogs",
      "outputs": [
        {
          "components": [
            {
              "internalType": "uint256",
              "name": "timestamp",
              "type": "uint256"
            },
            {
              "internalType": "string",
              "name": "dataHash",
              "type": "string"
            }
          ],
          "internalType": "struct LogStorage.LogEntry[]",
          "name": "",
          "type": "tuple[]"
        }
      ],
      "stateMutability": "view",
      "type": "function"
    }
  ],
  "bytecode": "0x608060405234801561001057600080fd5b50610a3b806100206000396000f3fe608060405234801561001057600080fd5b50600436106100365760003560e01c806391dc956d1461003b578063f42b53cf14610057575b600080fd5b61005560048036038101906100509190610411565b610087565b005b610071600480360381019061006c91906104b8565b61017e565b60405161007e919061067c565b60405180910390f35b600060405180604001604052804281526020018381525090506000803373ffffffffffffffffffffffffffffffffffffffff1673ffffffffffffffffffffffffffffffffffffffff16815260200190815260200160002081908060018154018082558091505060019003906000526020600020906002020160009091909190915060008201518160000155602082015181600101908161012791906108aa565b5050503373ffffffffffffffffffffffffffffffffffffffff167f8b0680369a607bf6534415dadcb8bb9fd2aeeb6ba057be6cf65a5995faa30f9842846040516101729291906109d5565b60405180910390a25050565b60606000808373ffffffffffffffffffffffffffffffffffffffff1673ffffffffffffffffffffffffffffffffffffffff168152602001908152602001600020805480602002602001604051908101604052809291908181526020016000905b828210156102ac57838290600052602060002090600202016040518060400160405290816000820154815260200160018201805461021b906106cd565b80601f0160208091040260200160405190810160405280929190818152602001828054610247906106cd565b80156102945780601f1061026957610100808354040283529160200191610294565b820191906000526020600020905b81548152906001019060200180831161027757829003601f168201915b505050505081525050815260200190600101906101de565b505050509050919050565b6000604051905090565b600080fd5b600080fd5b600080fd5b600080fd5b6000601f19601f8301169050919050565b7f4e487b7100000000000000000000000000000000000000000000000000000000600052604160045260246000fd5b61031e826102d5565b810181811067ffffffffffffffff8211171561033d5761033c6102e6565b5b80604052505050565b60006103506102b7565b905061035c8282610315565b919050565b600067ffffffffffffffff82111561037c5761037b6102e6565b5b610385826102d5565b9050602081019050919050565b82818337600083830152505050565b60006103b46103af84610361565b610346565b9050828152602081018484840111156103d0576103cf6102d0565b5b6103db848285610392565b509392505050565b600082601f8301126103f8576103f76102cb565b5b81356104088482602086016103a1565b91505092915050565b600060208284031215610427576104266102c1565b5b600082013567ffffffffffffffff811115610445576104446102c6565b5b610451848285016103e3565b91505092915050565b600073ffffffffffffffffffffffffffffffffffffffff82169050919050565b60006104858261045a565b9050919050565b6104958161047a565b81146104a057600080fd5b50565b6000813590506104b28161048c565b92915050565b6000602082840312156104ce576104cd6102c1565b5b60006104dc848285016104a3565b91505092915050565b600081519050919050565b600082825260208201905092915050565b6000819050602082019050919050565b6000819050919050565b61052481610511565b82525050565b600081519050919050565b600082825260208201905092915050565b60005b83811015610564578082015181840152602081019050610549565b60008484015250505050565b600061057b8261052a565b6105858185610535565b9350610595818560208601610546565b61059e816102d5565b840191505092915050565b60006040830160008301516105c1600086018261051b565b50602083015184820360208601526105d98282610570565b9150508091505092915050565b60006105f283836105a9565b905092915050565b6000602082019050919050565b6000610612826104e5565b61061c81856104f0565b93508360208202850161062e85610501565b8060005b8581101561066a578484038952815161064b85826105e6565b9450610656836105fa565b925060208a01995050600181019050610632565b50829750879550505050505092915050565b600060208201905081810360008301526106968184610607565b905092915050565b7f4e487b7100000000000000000000000000000000000000000000000000000000600052602260045260246000fd5b600060028204905060018216806106e557607f821691505b6020821081036106f8576106f761069e565b5b50919050565b60008190508160005260206000209050919050565b60006020601f8301049050919050565b600082821b905092915050565b6000600883026107607fffffffffffffffffffffffffffffffffffffffffffffffffffffffffffffffff82610723565b61076a8683610723565b95508019841693508086168417925050509392505050565b6000819050919050565b60006107a76107a261079d84610511565b610782565b610511565b9050919050565b6000819050919050565b6107c18361078c565b6107d56107cd826107ae565b848454610730565b825550505050565b600090565b6107ea6107dd565b6107f58184846107b8565b505050565b5b818110156108195761080e6000826107e2565b6001810190506107fb565b5050565b601f82111561085e5761082f816106fe565b61083884610713565b81016020851015610847578190505b61085b61085385610713565b8301826107fa565b50505b505050565b600082821c905092915050565b600061088160001984600802610863565b1980831691505092915050565b600061089a8383610870565b9150826002028217905092915050565b6108b38261052a565b67ffffffffffffffff8111156108cc576108cb6102e6565b5b6108d682546106cd565b6108e182828561081d565b600060209050601f8311600181146109145760008415610902578287015190505b61090c858261088e565b865550610974565b601f198416610922866106fe565b60005b8281101561094a57848901518255600182019150602085019450602081019050610925565b868310156109675784890151610963601f891682610870565b8355505b6001600288020188555050505b505050505050565b61098581610511565b82525050565b600082825260208201905092915050565b60006109a78261052a565b6109b1818561098b565b93506109c1818560208601610546565b6109ca816102d5565b840191505092915050565b60006040820190506109ea600083018561097c565b81810360208301526109fc818461099c565b9050939250505056fea2646970667358221220df30c68b8635cc50028f47b268cb280bb16bdae059cc6a2c677d16d8aa41c90464736f6c63430008180033",
  "linkReferences": {},
  "deployedLinkReferences": {}
}